121211111INFORMATION BUILDERS01234560111111
121212345CAREER TRAINING CTR 12345672222222
221022222HOMELITE TEXTRON CO 34545000000000
221434567NEAS MEMBER BENEFITS00111110000000
221455555PILOT LIFE INS. CO. 10000000100000
341000111DAUPHIN DEPOSIT BANK14099001993000
341054321AIRCRAFT OWNERS ASSC05426124042000
341733333NORFOLK CORP        06396350446288
471112121GENERAL SERVICES CO.11444001105956
471124680INFO MANAGEMENT CO. 17481451189247
472199999DOLLAR SAVINGS BANK 05059000462195
472176543NATL MUSIC CORP.    02383460443526
121299876SOFTWARE SOLUTIONS  04567001234567
121245678DATA PROCESSING INC 07890120456789
221034568MIDWEST SUPPLY CO   01234000098765
221056789INDUSTRIAL PARTNERS 09999990999999
221078901GLOBAL TECH GROUP   00543210012345
341017346NORTHERN TRUST CO   12000000110000
341065432ATLANTIC FINANCE    08765430076543
341088888PACIFIC INVESTMENT  06666660600000
471134579CENTRAL LOGISTICS   04500000043000
471156780METRO SERVICES LTD  07891000987654
472112233FIRST UNION BANK    13456001234560
472145679REGIONAL FOODS INC  02345000012345
472167890ADVANCED SYSTEMS    09987000876540
121311112URBAN RETAIL GROUP  05678000567800
221099999CAPITAL INSURANCE   14567001456700
341022224HORIZON CREDIT ASSC 06789000678900
471188881INTEGRATED NETWORKS 03456000034560
472199998NATIONAL DATA CORP  08999000899900
